:020000040000FA
:1000000029208316031306309F00C030850000307E
:100010008800831203133E308500212830304007CA
:100020008400000888000800C00B08000930C000E8
:10003000FF30C200FF30C100C10B1C28C20B1A28C0
:1000400008000E2018201420212843084402031918
:100050000800831203130930C000C030B000F9302B
:10006000B100A430B200B030B3009930B400923087
:10007000B5008230B600F830B7008030B800983054
:08008000B9000800000042284D
:04008800003400340C
:02400E00321866
:00000001FF
