:020000040000FA
:100000008316031306309F0083120930C000C030EE
:10001000B000F930B100A430B200B030B300993074
:10002000B4009230B5008230B600F830B7008030AE
:10003000B8009830B90083160313C0308500003033
:1000400088008312373085003A283030400784001A
:10005000000888000800C00B08000930C000AF305D
:10006000C2003228FF30C1003528C10B3528C20B31
:100070003228080025202F202F202F202F202B2052
:060080003A2800004128AF
:04008600003400340E
:02400E00321866
:00000001FF
