:020000040000FA
:060000000A128A11FC2F18
:100E1E00700884008317711C83130008F0390800D2
:100E2E00700884008317711C83130008F2000430CD
:100E3E000310F20CFF3E031D1F2F72080F3908001E
:100E4E00700884008317711C83130008F039F200B8
:100E5E00700884008317711C8313720880000800C9
:100E6E000630831603139F00F0308500F0308600A5
:100E7E00F0308700850183120313850186018701F7
:100E8E0008000130F300720A4E2F0310F30DFF3EDF
:100E9E00031D4C2F7308F400700884008317711C17
:100EAE008313740880040800F6000730F000003049
:100EBE00F1000A128A1127270A128A110730F00050
:100ECE000030F1007608F5007508F2000A128A115A
:100EDE0048270A128A110800F700831203138701AC
:100EEE00F03083160313870077080A128A115B27E6
:100EFE000A128A110730F0000030F1000A128A112E
:100F0E0017270A128A110800F700831203138701AC
:100F1E000F3083160313870077080A128A11A3274E
:100F2E000A128A110730F0000030F1000A128A11FD
:100F3E000F270A128A110800F6000730F000003061
:100F4E00F1000A128A1127270A128A110730F000BF
:100F5E000030F1007608043EF5007508F2000A1222
:100F6E008A1148270A128A1108000A128A11372795
:100F7E000A128A11FA0183120313850186017A0877
:100F8E000A128A1173270A128A11F8007808F900DA
:100F9E007A080A128A118B270A128A11F800780829
:100FAE00F905790883120313850005080319E02F4C
:100FBE00E12FEE2F0630F0000030F1007A08F80035
:100FCE007808F2000A128A1148270A128A11013093
:100FDE00F8007808FA0704307A02031CF72FF82F6E
:100FEE00C22FC12F0A128A11002883010A128A11F8
:020FFE00BC2F06
:02400E00323F3F
:00000001FF
