:020000040000FA
:060000000A128A11FC2F18
:100DDA0001300A128A1132270A128A1108000230D7
:100DEA000A128A1132270A128A110800F3007308BC
:100DFA0080380A128A1132270A128A11080007302B
:100E0A00831603139F00850188018312031385014A
:100E1A0088010800F2008312031385140511720871
:100E2A00880085110A128A1147270A128A11831229
:100E3A00031385150800F4007408F3000130031049
:100E4A00F30DFF3E031D242F0310730D10380A12F1
:100E5A008A1132270A128A110800F2008316031334
:100E6A008801831203138510051172088800851101
:100E7A000A128A1147270A128A1183120313851547
:100E8A0088010800F001F1010130F0070318F10AA6
:100E9A000030F1077108803AFF0093307F02031D8A
:100EAA00582F88307002031C5B2F5C2F492F0800D3
:100EBA00F6007308F40002300310F40DFF3E031D20
:100ECA00612F7608F50002300310F50DFF3E031D71
:100EDA00692F0310750D740430380A128A113227EB
:100EEA000A128A110800F7007308F500013003108E
:100EFA00F50DFF3E031D7C2F7708F6000130031025
:100F0A00F60DFF3E031D842F0310760D750474043D
:100F1A0008380A128A1132270A128A110800F600C2
:100F2A000A128A11F4260A128A1128307402031C42
:100F3A009F2FA02FA42F2730F5007508F4007608FC
:100F4A000319A82FA92FAD2F2830F5007508F4072B
:100F5A0074080A128A11FB260A128A1108000A1258
:100F6A008A1104270A128A11F301F30AF401F40A16
:100F7A0001300A128A1178270A128A110A128A1172
:100F8A00ED260A128A11F30101300A128A115D272D
:100F9A000A128A1161300A128A110F270A128A115B
:100FAA0062300A128A110F270A128A1101300A12B4
:100FBA008A1120270A128A1163300A128A110F270E
:100FCA000A128A11F40101300A128A1194270A12AC
:100FDA008A11F301F30AF401F40A01300A128A11A0
:100FEA0078270A128A11EE2F0A128A110028830121
:060FFA000A128A11B42F57
:02400E00323F3F
:00000001FF
