:020000040000FA
:100000004C208316031306309F00C030850000305B
:100010008800831203139A283330390784000008BC
:1000200085000800203030078400000888000800A0
:100030000030B9000C203A08B000122043200130F3
:10004000B9000C203B08B000122043200230B90058
:100050000C203C08B000122043200330B9000C20D3
:100060003D08B000122043200430B9000C203E08A7
:10007000B000122043200530B9000C203F08B0002A
:100080001220432008000430B200FF30B100B10B51
:100090004728B20B45280800831203130030B00034
:1000A000C030A000F930A100A430A200B030A300FD
:1000B0009930A4009230A5008230A600F830A70045
:1000C0008030A8009830A9000030B9003E30B3005D
:1000D0003D30B4003B30B5003730B6002F30B700AC
:1000E0001F30B8000030BA000030BB000030BC0048
:1000F0000030BD000030BE000030BF000530C00041
:10010000080040083A3E840000080311093C031926
:10011000922840083A3E84000008013E80000530E5
:10012000C000080040083A3E8400003080000130E2
:0A013000C0028128182081209A28BF
:04013A000034003459
:02400E00321866
:00000001FF
