:020000040000FA
:060000000A128A11FC2F18
:100EA200F2007208F100700A582F0310F10CFF3E95
:100EB200031D562F7108013908000130F300720A30
:100EC200642F0310F30DFF3E031D622F7308F4001D
:100ED200700884008317711C83137408800408004F
:100EE2000130F300720A772F0310F30DFF3E031D4A
:100EF200752F7308FF3AF400700884008317711C81
:100F0200831374088005080078080319892F8A2F33
:100F1200982F7508F0007608F1007708F900790833
:100F2200F2000A128A115E270A128A11A52F750889
:100F3200F0007608F1007708F9007908F2000A1249
:100F42008A1171270A128A110800063083160313C8
:100F52009F000F3085000F30860087018312031334
:100F6200850186018701FD010730F5000030F6009A
:100F72007D08FA007A08F7007D08FB007B08F00084
:100F82008312031305080A128A1151270A128A11C1
:100F9200FC007C08F8000A128A1185270A128A11BD
:100FA2000730F5000030F6007D08043EFA007A08AA
:100FB200F7007D08FB007B08F0008312031306088C
:100FC2000A128A1151270A128A11FC007C08F800C1
:100FD2000A128A1185270A128A110130FA007A0848
:100FE200FD0704307D02031CF72FF82FB52FB42F15
:0E0FF2000A128A11002883010A128A11A62F02
:02400E00323F3F
:00000001FF
