:020000040000FA
:1000000021208316031306309F00C0308500003086
:1000100088008312031348284330490784000008EE
:100020008500080030304007840000088800080080
:100030000430C200FF30C100C10B1C28C20B1A28BB
:100040000800831203130030C000C030B000F93044
:10005000B100A430B200B030B3009930B400923097
:10006000B5008230B600F830B7008030B800983064
:10007000B9000030C9003E30C3003D30C4003B3001
:10008000C5003730C6002F30C7001F30C800080039
:100090000030C9000C200130C000122018200130AF
:1000A000C9000C200230C000122018200230C90004
:1000B0000C200330C000122018200330C9000C208F
:1000C0000430C000122018200430C9000C20053074
:1000D000C000122018200530C9000C200630C000D6
:0600E00012201820482840
:0400E60000340034AE
:02400E00321866
:00000001FF
